{
  "_format": "hh-sol-artifact-1",
  "contractName": "JoinSpace",
  "sourceName": "contracts/JoinSpace.sol",
  "abi": [
    {
      "inputs": [],
      "stateMutability": "nonpayable",
      "type": "constructor"
    },
    {
      "anonymous": false,
      "inputs": [
        {
          "indexed": true,
          "internalType": "address",
          "name": "id",
          "type": "address"
        },
        {
          "indexed": false,
          "internalType": "uint256",
          "name": "timestamp",
          "type": "uint256"
        },
        {
          "indexed": false,
          "internalType": "string",
          "name": "countryEmoji",
          "type": "string"
        }
      ],
      "name": "NewSpacer",
      "type": "event"
    },
    {
      "inputs": [],
      "name": "getNFTIPFSLink",
      "outputs": [
        {
          "internalType": "string",
          "name": "",
          "type": "string"
        }
      ],
      "stateMutability": "nonpayable",
      "type": "function"
    },
    {
      "inputs": [],
      "name": "getSpacersArray",
      "outputs": [
        {
          "components": [
            {
              "internalType": "address",
              "name": "id",
              "type": "address"
            },
            {
              "internalType": "string",
              "name": "feelingEmoji",
              "type": "string"
            },
            {
              "internalType": "string",
              "name": "countryEmoji",
              "type": "string"
            },
            {
              "internalType": "string",
              "name": "date",
              "type": "string"
            },
            {
              "internalType": "enum WinStatus",
              "name": "status",
              "type": "uint8"
            },
            {
              "internalType": "enum WinType",
              "name": "winType",
              "type": "uint8"
            }
          ],
          "internalType": "struct Spacer[]",
          "name": "",
          "type": "tuple[]"
        }
      ],
      "stateMutability": "view",
      "type": "function"
    },
    {
      "inputs": [],
      "name": "getTotalSpacers",
      "outputs": [
        {
          "internalType": "uint256",
          "name": "",
          "type": "uint256"
        }
      ],
      "stateMutability": "view",
      "type": "function"
    },
    {
      "inputs": [
        {
          "components": [
            {
              "internalType": "address",
              "name": "id",
              "type": "address"
            },
            {
              "internalType": "string",
              "name": "feelingEmoji",
              "type": "string"
            },
            {
              "internalType": "string",
              "name": "countryEmoji",
              "type": "string"
            },
            {
              "internalType": "string",
              "name": "date",
              "type": "string"
            },
            {
              "internalType": "enum WinStatus",
              "name": "status",
              "type": "uint8"
            },
            {
              "internalType": "enum WinType",
              "name": "winType",
              "type": "uint8"
            }
          ],
          "internalType": "struct Spacer",
          "name": "_spacer",
          "type": "tuple"
        }
      ],
      "name": "joinSpace",
      "outputs": [],
      "stateMutability": "nonpayable",
      "type": "function"
    }
  ],
  "bytecode": "0x60806040523480156200001157600080fd5b506200005d6040518060400160405280602081526020017f57656c636f6d6520746f2074686520776f726c64206f662073706163657273218152506200006360201b6200076a1760201c565b620001f7565b62000103816040516024016200007a919062000170565b6040516020818303038152906040527f41304fac000000000000000000000000000000000000000000000000000000007bffffffffffffffffffffffffffffffffffffffffffffffffffffffff19166020820180517bffffffffffffffffffffffffffffffffffffffffffffffffffffffff83818316178352505050506200010660201b60201c565b50565b60008151905060006a636f6e736f6c652e6c6f679050602083016000808483855afa5050505050565b60006200013c8262000194565b6200014881856200019f565b93506200015a818560208601620001b0565b6200016581620001e6565b840191505092915050565b600060208201905081810360008301526200018c81846200012f565b905092915050565b600081519050919050565b600082825260208201905092915050565b60005b83811015620001d0578082015181840152602081019050620001b3565b83811115620001e0576000848401525b50505050565b6000601f19601f8301169050919050565b6117c980620002076000396000f3fe608060405234801561001057600080fd5b506004361061004c5760003560e01c8063b9b7ca2514610051578063c202c79c1461006f578063cb1c11a51461008b578063d6163661146100a9575b600080fd5b6100596100c7565b604051610066919061124e565b60405180910390f35b61008960048036038101906100849190610fc6565b610142565b005b6100936103a6565b6040516100a09190611346565b60405180910390f35b6100b16103f1565b6040516100be919061122c565b60405180910390f35b60606101076040518060400160405280601981526020017f736f6d6520697066732075726c20666f72204e465420776f6e0000000000000081525061076a565b6040518060400160405280600d81526020017f736f6d6520697066732075726c00000000000000000000000000000000000000815250905090565b600481908060018154018082558091505060019003906000526020600020906005020160009091909190915060008201518160000160006101000a81548173ffffffffffffffffffffffffffffffffffffffff021916908373ffffffffffffffffffffffffffffffffffffffff16021790555060208201518160010190805190602001906101d1929190610d98565b5060408201518160020190805190602001906101ee929190610d98565b50606082015181600301908051906020019061020b929190610d98565b5060808201518160040160006101000a81548160ff0219169083600281111561025d577f4e487b7100000000000000000000000000000000000000000000000000000000600052602160045260246000fd5b021790555060a08201518160040160016101000a81548160ff021916908360028111156102b3577f4e487b7100000000000000000000000000000000000000000000000000000000600052602160045260246000fd5b0217905550505060016000808282546102cc9190611458565b925050819055506102e08160400151610803565b806000015173ffffffffffffffffffffffffffffffffffffffff167fd06d06403cf1f215d28f7db5b1e7c4e831fd8a709be7afba154018aec5076c59428360400151604051610330929190611361565b60405180910390a26103686040518060600160405280603881526020016117066038913982600001518360200151846040015161083b565b6103a360405180608001604052806056815260200161173e6056913961039183608001516108dd565b61039e8460a00151610a88565b610c34565b50565b60006103e96040518060400160405280601981526020017f5765206861766520256420746f74616c20737061636572732100000000000000815250600054610cd3565b600054905090565b60606004805480602002602001604051908101604052809291908181526020016000905b8282101561076157838290600052602060002090600502016040518060c00160405290816000820160009054906101000a900473ffffffffffffffffffffffffffffffffffffffff1673ffffffffffffffffffffffffffffffffffffffff1673ffffffffffffffffffffffffffffffffffffffff16815260200160018201805461049e90611576565b80601f01602080910402602001604051908101604052809291908181526020018280546104ca90611576565b80156105175780601f106104ec57610100808354040283529160200191610517565b820191906000526020600020905b8154815290600101906020018083116104fa57829003601f168201915b5050505050815260200160028201805461053090611576565b80601f016020809104026020016040519081016040528092919081815260200182805461055c90611576565b80156105a95780601f1061057e576101008083540402835291602001916105a9565b820191906000526020600020905b81548152906001019060200180831161058c57829003601f168201915b505050505081526020016003820180546105c290611576565b80601f01602080910402602001604051908101604052809291908181526020018280546105ee90611576565b801561063b5780601f106106105761010080835404028352916020019161063b565b820191906000526020600020905b81548152906001019060200180831161061e57829003601f168201915b505050505081526020016004820160009054906101000a900460ff16600281111561068f577f4e487b7100000000000000000000000000000000000000000000000000000000600052602160045260246000fd5b60028111156106c7577f4e487b7100000000000000000000000000000000000000000000000000000000600052602160045260246000fd5b81526020016004820160019054906101000a900460ff166002811115610716577f4e487b7100000000000000000000000000000000000000000000000000000000600052602160045260246000fd5b600281111561074e577f4e487b7100000000000000000000000000000000000000000000000000000000600052602160045260246000fd5b8152505081526020019060010190610415565b50505050905090565b6108008160405160240161077e919061124e565b6040516020818303038152906040527f41304fac000000000000000000000000000000000000000000000000000000007bffffffffffffffffffffffffffffffffffffffffffffffffffffffff19166020820180517bffffffffffffffffffffffffffffffffffffffffffffffffffffffff8381831617835250505050610d6f565b50565b600180826040516108149190611215565b908152602001604051809103902060008282546108319190611458565b9250508190555050565b6108d7848484846040516024016108559493929190611270565b6040516020818303038152906040527f245986f2000000000000000000000000000000000000000000000000000000007bffffffffffffffffffffffffffffffffffffffffffffffffffffffff19166020820180517bffffffffffffffffffffffffffffffffffffffffffffffffffffffff8381831617835250505050610d6f565b50505050565b606060006002811115610919577f4e487b7100000000000000000000000000000000000000000000000000000000600052602160045260246000fd5b826002811115610952577f4e487b7100000000000000000000000000000000000000000000000000000000600052602160045260246000fd5b1415610995576040518060400160405280600781526020017f50454e44494e47000000000000000000000000000000000000000000000000008152509050610a83565b6002808111156109ce577f4e487b7100000000000000000000000000000000000000000000000000000000600052602160045260246000fd5b826002811115610a07577f4e487b7100000000000000000000000000000000000000000000000000000000600052602160045260246000fd5b1415610a4a576040518060400160405280600381526020017f574f4e00000000000000000000000000000000000000000000000000000000008152509050610a83565b6040518060400160405280600481526020017f4c4f53540000000000000000000000000000000000000000000000000000000081525090505b919050565b606060016002811115610ac4577f4e487b7100000000000000000000000000000000000000000000000000000000600052602160045260246000fd5b826002811115610afd577f4e487b7100000000000000000000000000000000000000000000000000000000600052602160045260246000fd5b1415610b40576040518060400160405280600381526020017f4e465400000000000000000000000000000000000000000000000000000000008152509050610c2f565b60006002811115610b7a577f4e487b7100000000000000000000000000000000000000000000000000000000600052602160045260246000fd5b826002811115610bb3577f4e487b7100000000000000000000000000000000000000000000000000000000600052602160045260246000fd5b1415610bf6576040518060400160405280600381526020017f45544800000000000000000000000000000000000000000000000000000000008152509050610c2f565b6040518060400160405280600f81526020017f4e6f742064657465726d696e656421000000000000000000000000000000000081525090505b919050565b610cce838383604051602401610c4c939291906112ca565b6040516020818303038152906040527f2ced7cef000000000000000000000000000000000000000000000000000000007bffffffffffffffffffffffffffffffffffffffffffffffffffffffff19166020820180517bffffffffffffffffffffffffffffffffffffffffffffffffffffffff8381831617835250505050610d6f565b505050565b610d6b8282604051602401610ce9929190611316565b6040516020818303038152906040527f9710a9d0000000000000000000000000000000000000000000000000000000007bffffffffffffffffffffffffffffffffffffffffffffffffffffffff19166020820180517bffffffffffffffffffffffffffffffffffffffffffffffffffffffff8381831617835250505050610d6f565b5050565b60008151905060006a636f6e736f6c652e6c6f679050602083016000808483855afa5050505050565b828054610da490611576565b90600052602060002090601f016020900481019282610dc65760008555610e0d565b82601f10610ddf57805160ff1916838001178555610e0d565b82800160010185558215610e0d579182015b82811115610e0c578251825591602001919060010190610df1565b5b509050610e1a9190610e1e565b5090565b5b80821115610e37576000816000905550600101610e1f565b5090565b6000610e4e610e49846113b6565b611391565b905082815260208101848484011115610e6657600080fd5b610e71848285611534565b509392505050565b600081359050610e88816116ce565b92915050565b600081359050610e9d816116e5565b92915050565b600081359050610eb2816116f5565b92915050565b600082601f830112610ec957600080fd5b8135610ed9848260208601610e3b565b91505092915050565b600060c08284031215610ef457600080fd5b610efe60c0611391565b90506000610f0e84828501610e79565b600083015250602082013567ffffffffffffffff811115610f2e57600080fd5b610f3a84828501610eb8565b602083015250604082013567ffffffffffffffff811115610f5a57600080fd5b610f6684828501610eb8565b604083015250606082013567ffffffffffffffff811115610f8657600080fd5b610f9284828501610eb8565b6060830152506080610fa684828501610e8e565b60808301525060a0610fba84828501610ea3565b60a08301525092915050565b600060208284031215610fd857600080fd5b600082013567ffffffffffffffff811115610ff257600080fd5b610ffe84828501610ee2565b91505092915050565b6000611013838361116f565b905092915050565b611024816114ae565b82525050565b611033816114ae565b82525050565b6000611044826113f7565b61104e818561141a565b935083602082028501611060856113e7565b8060005b8581101561109c578484038952815161107d8582611007565b94506110888361140d565b925060208a01995050600181019050611064565b50829750879550505050505092915050565b6110b781611510565b82525050565b6110c681611522565b82525050565b60006110d782611402565b6110e1818561142b565b93506110f1818560208601611543565b6110fa81611695565b840191505092915050565b600061111082611402565b61111a818561143c565b935061112a818560208601611543565b61113381611695565b840191505092915050565b600061114982611402565b611153818561144d565b9350611163818560208601611543565b80840191505092915050565b600060c083016000830151611187600086018261101b565b506020830151848203602086015261119f82826110cc565b915050604083015184820360408601526111b982826110cc565b915050606083015184820360608601526111d382826110cc565b91505060808301516111e860808601826110ae565b5060a08301516111fb60a08601826110bd565b508091505092915050565b61120f81611506565b82525050565b6000611221828461113e565b915081905092915050565b600060208201905081810360008301526112468184611039565b905092915050565b600060208201905081810360008301526112688184611105565b905092915050565b6000608082019050818103600083015261128a8187611105565b9050611299602083018661102a565b81810360408301526112ab8185611105565b905081810360608301526112bf8184611105565b905095945050505050565b600060608201905081810360008301526112e48186611105565b905081810360208301526112f88185611105565b9050818103604083015261130c8184611105565b9050949350505050565b600060408201905081810360008301526113308185611105565b905061133f6020830184611206565b9392505050565b600060208201905061135b6000830184611206565b92915050565b60006040820190506113766000830185611206565b81810360208301526113888184611105565b90509392505050565b600061139b6113ac565b90506113a782826115a8565b919050565b6000604051905090565b600067ffffffffffffffff8211156113d1576113d0611666565b5b6113da82611695565b9050602081019050919050565b6000819050602082019050919050565b600081519050919050565b600081519050919050565b6000602082019050919050565b600082825260208201905092915050565b600082825260208201905092915050565b600082825260208201905092915050565b600081905092915050565b600061146382611506565b915061146e83611506565b9250827fffffffffffffffffffffffffffffffffffffffffffffffffffffffffffffffff038211156114a3576114a26115d9565b5b828201905092915050565b60006114b9826114e6565b9050919050565b60008190506114ce826116a6565b919050565b60008190506114e1826116ba565b919050565b600073ffffffffffffffffffffffffffffffffffffffff82169050919050565b6000819050919050565b600061151b826114c0565b9050919050565b600061152d826114d3565b9050919050565b82818337600083830152505050565b60005b83811015611561578082015181840152602081019050611546565b83811115611570576000848401525b50505050565b6000600282049050600182168061158e57607f821691505b602082108114156115a2576115a1611637565b5b50919050565b6115b182611695565b810181811067ffffffffffffffff821117156115d0576115cf611666565b5b80604052505050565b7f4e487b7100000000000000000000000000000000000000000000000000000000600052601160045260246000fd5b7f4e487b7100000000000000000000000000000000000000000000000000000000600052602160045260246000fd5b7f4e487b7100000000000000000000000000000000000000000000000000000000600052602260045260246000fd5b7f4e487b7100000000000000000000000000000000000000000000000000000000600052604160045260246000fd5b6000601f19601f8301169050919050565b600381106116b7576116b6611608565b5b50565b600381106116cb576116ca611608565b5b50565b6116d7816114ae565b81146116e257600080fd5b50565b600381106116f257600080fd5b50565b6003811061170257600080fd5b5056fe257320686173206a6f696e656420746865207370616365212072656163746564207769746820656d6f6a693a2025732066726f6d2025732e4274772c206865726520697320796f757220737461747573206f662077696e696e67204e4654206f7220455448206973203d3d3d3e2025732c20616e6420796f75722077696e2074797065206973203d3d3d3e202573a2646970667358221220673555ce7bde859871ee307f0fb9b82b9aff2bdf48bfe3a06ef85c8e897e316f64736f6c63430008040033",
  "linkReferences": {},
  "deployedLinkReferences": {}
}