{
  "_format": "hh-sol-artifact-1",
  "contractName": "JoinSpace",
  "sourceName": "contracts/JoinSpace.sol",
  "abi": [
    {
      "inputs": [],
      "stateMutability": "payable",
      "type": "constructor"
    },
    {
      "anonymous": false,
      "inputs": [
        {
          "indexed": true,
          "internalType": "address",
          "name": "id",
          "type": "address"
        },
        {
          "indexed": false,
          "internalType": "uint256",
          "name": "timestamp",
          "type": "uint256"
        },
        {
          "indexed": false,
          "internalType": "string",
          "name": "countryEmoji",
          "type": "string"
        }
      ],
      "name": "NewSpacer",
      "type": "event"
    },
    {
      "inputs": [],
      "name": "getNFTIPFSLink",
      "outputs": [
        {
          "internalType": "string",
          "name": "",
          "type": "string"
        }
      ],
      "stateMutability": "nonpayable",
      "type": "function"
    },
    {
      "inputs": [],
      "name": "getSpacersArray",
      "outputs": [
        {
          "components": [
            {
              "internalType": "address",
              "name": "id",
              "type": "address"
            },
            {
              "internalType": "string",
              "name": "feelingEmoji",
              "type": "string"
            },
            {
              "internalType": "string",
              "name": "countryEmoji",
              "type": "string"
            },
            {
              "internalType": "string",
              "name": "date",
              "type": "string"
            },
            {
              "internalType": "enum WinStatus",
              "name": "status",
              "type": "uint8"
            },
            {
              "internalType": "enum WinType",
              "name": "winType",
              "type": "uint8"
            }
          ],
          "internalType": "struct Spacer[]",
          "name": "",
          "type": "tuple[]"
        }
      ],
      "stateMutability": "view",
      "type": "function"
    },
    {
      "inputs": [],
      "name": "getTotalSpacers",
      "outputs": [
        {
          "internalType": "uint256",
          "name": "",
          "type": "uint256"
        }
      ],
      "stateMutability": "view",
      "type": "function"
    },
    {
      "inputs": [
        {
          "components": [
            {
              "internalType": "address",
              "name": "id",
              "type": "address"
            },
            {
              "internalType": "string",
              "name": "feelingEmoji",
              "type": "string"
            },
            {
              "internalType": "string",
              "name": "countryEmoji",
              "type": "string"
            },
            {
              "internalType": "string",
              "name": "date",
              "type": "string"
            },
            {
              "internalType": "enum WinStatus",
              "name": "status",
              "type": "uint8"
            },
            {
              "internalType": "enum WinType",
              "name": "winType",
              "type": "uint8"
            }
          ],
          "internalType": "struct Spacer",
          "name": "_spacer",
          "type": "tuple"
        }
      ],
      "name": "joinSpace",
      "outputs": [],
      "stateMutability": "nonpayable",
      "type": "function"
    }
  ],
  "bytecode": "0x60806040526200004f6040518060400160405280602081526020017f57656c636f6d6520746f2074686520776f726c64206f662073706163657273218152506200005560201b620008661760201c565b620001e9565b620000f5816040516024016200006c919062000162565b6040516020818303038152906040527f41304fac000000000000000000000000000000000000000000000000000000007bffffffffffffffffffffffffffffffffffffffffffffffffffffffff19166020820180517bffffffffffffffffffffffffffffffffffffffffffffffffffffffff8381831617835250505050620000f860201b60201c565b50565b60008151905060006a636f6e736f6c652e6c6f679050602083016000808483855afa5050505050565b60006200012e8262000186565b6200013a818562000191565b93506200014c818560208601620001a2565b6200015781620001d8565b840191505092915050565b600060208201905081810360008301526200017e818462000121565b905092915050565b600081519050919050565b600082825260208201905092915050565b60005b83811015620001c2578082015181840152602081019050620001a5565b83811115620001d2576000848401525b50505050565b6000601f19601f8301169050919050565b611a2f80620001f96000396000f3fe608060405234801561001057600080fd5b506004361061004c5760003560e01c8063b9b7ca2514610051578063c202c79c1461006f578063cb1c11a51461008b578063d6163661146100a9575b600080fd5b6100596100c7565b60405161006691906113c8565b60405180910390f35b610089600480360381019061008491906110c2565b610142565b005b6100936104a2565b6040516100a09190611500565b60405180910390f35b6100b16104ed565b6040516100be91906113a6565b60405180910390f35b60606101076040518060400160405280601981526020017f736f6d6520697066732075726c20666f72204e465420776f6e00000000000000815250610866565b6040518060400160405280600d81526020017f736f6d6520697066732075726c00000000000000000000000000000000000000815250905090565b600481908060018154018082558091505060019003906000526020600020906005020160009091909190915060008201518160000160006101000a81548173ffffffffffffffffffffffffffffffffffffffff021916908373ffffffffffffffffffffffffffffffffffffffff16021790555060208201518160010190805190602001906101d1929190610e94565b5060408201518160020190805190602001906101ee929190610e94565b50606082015181600301908051906020019061020b929190610e94565b5060808201518160040160006101000a81548160ff0219169083600281111561025d577f4e487b7100000000000000000000000000000000000000000000000000000000600052602160045260246000fd5b021790555060a08201518160040160016101000a81548160ff021916908360028111156102b3577f4e487b7100000000000000000000000000000000000000000000000000000000600052602160045260246000fd5b0217905550505060016000808282546102cc919061161d565b925050819055506102e081604001516108ff565b806000015173ffffffffffffffffffffffffffffffffffffffff167fd06d06403cf1f215d28f7db5b1e7c4e831fd8a709be7afba154018aec5076c5942836040015160405161033092919061151b565b60405180910390a261036860405180606001604052806038815260200161196c60389139826000015183602001518460400151610937565b6103a36040518060800160405280605681526020016119a46056913961039183608001516109d9565b61039e8460a00151610b84565b610d30565b6000655af3107a40009050478111156103f1576040517f08c379a00000000000000000000000000000000000000000000000000000000081526004016103e8906114c0565b60405180910390fd5b60003373ffffffffffffffffffffffffffffffffffffffff168260405161041790611391565b60006040518083038185875af1925050503d8060008114610454576040519150601f19603f3d011682016040523d82523d6000602084013e610459565b606091505b505090508061049d576040517f08c379a0000000000000000000000000000000000000000000000000000000008152600401610494906114e0565b60405180910390fd5b505050565b60006104e56040518060400160405280601981526020017f5765206861766520256420746f74616c20737061636572732100000000000000815250600054610dcf565b600054905090565b60606004805480602002602001604051908101604052809291908181526020016000905b8282101561085d57838290600052602060002090600502016040518060c00160405290816000820160009054906101000a900473ffffffffffffffffffffffffffffffffffffffff1673ffffffffffffffffffffffffffffffffffffffff1673ffffffffffffffffffffffffffffffffffffffff16815260200160018201805461059a9061173b565b80601f01602080910402602001604051908101604052809291908181526020018280546105c69061173b565b80156106135780601f106105e857610100808354040283529160200191610613565b820191906000526020600020905b8154815290600101906020018083116105f657829003601f168201915b5050505050815260200160028201805461062c9061173b565b80601f01602080910402602001604051908101604052809291908181526020018280546106589061173b565b80156106a55780601f1061067a576101008083540402835291602001916106a5565b820191906000526020600020905b81548152906001019060200180831161068857829003601f168201915b505050505081526020016003820180546106be9061173b565b80601f01602080910402602001604051908101604052809291908181526020018280546106ea9061173b565b80156107375780601f1061070c57610100808354040283529160200191610737565b820191906000526020600020905b81548152906001019060200180831161071a57829003601f168201915b505050505081526020016004820160009054906101000a900460ff16600281111561078b577f4e487b7100000000000000000000000000000000000000000000000000000000600052602160045260246000fd5b60028111156107c3577f4e487b7100000000000000000000000000000000000000000000000000000000600052602160045260246000fd5b81526020016004820160019054906101000a900460ff166002811115610812577f4e487b7100000000000000000000000000000000000000000000000000000000600052602160045260246000fd5b600281111561084a577f4e487b7100000000000000000000000000000000000000000000000000000000600052602160045260246000fd5b8152505081526020019060010190610511565b50505050905090565b6108fc8160405160240161087a91906113c8565b6040516020818303038152906040527f41304fac000000000000000000000000000000000000000000000000000000007bffffffffffffffffffffffffffffffffffffffffffffffffffffffff19166020820180517bffffffffffffffffffffffffffffffffffffffffffffffffffffffff8381831617835250505050610e6b565b50565b60018082604051610910919061137a565b9081526020016040518091039020600082825461092d919061161d565b9250508190555050565b6109d38484848460405160240161095194939291906113ea565b6040516020818303038152906040527f245986f2000000000000000000000000000000000000000000000000000000007bffffffffffffffffffffffffffffffffffffffffffffffffffffffff19166020820180517bffffffffffffffffffffffffffffffffffffffffffffffffffffffff8381831617835250505050610e6b565b50505050565b606060006002811115610a15577f4e487b7100000000000000000000000000000000000000000000000000000000600052602160045260246000fd5b826002811115610a4e577f4e487b7100000000000000000000000000000000000000000000000000000000600052602160045260246000fd5b1415610a91576040518060400160405280600781526020017f50454e44494e47000000000000000000000000000000000000000000000000008152509050610b7f565b600280811115610aca577f4e487b7100000000000000000000000000000000000000000000000000000000600052602160045260246000fd5b826002811115610b03577f4e487b7100000000000000000000000000000000000000000000000000000000600052602160045260246000fd5b1415610b46576040518060400160405280600381526020017f574f4e00000000000000000000000000000000000000000000000000000000008152509050610b7f565b6040518060400160405280600481526020017f4c4f53540000000000000000000000000000000000000000000000000000000081525090505b919050565b606060016002811115610bc0577f4e487b7100000000000000000000000000000000000000000000000000000000600052602160045260246000fd5b826002811115610bf9577f4e487b7100000000000000000000000000000000000000000000000000000000600052602160045260246000fd5b1415610c3c576040518060400160405280600381526020017f4e465400000000000000000000000000000000000000000000000000000000008152509050610d2b565b60006002811115610c76577f4e487b7100000000000000000000000000000000000000000000000000000000600052602160045260246000fd5b826002811115610caf577f4e487b7100000000000000000000000000000000000000000000000000000000600052602160045260246000fd5b1415610cf2576040518060400160405280600381526020017f45544800000000000000000000000000000000000000000000000000000000008152509050610d2b565b6040518060400160405280600f81526020017f4e6f742064657465726d696e656421000000000000000000000000000000000081525090505b919050565b610dca838383604051602401610d4893929190611444565b6040516020818303038152906040527f2ced7cef000000000000000000000000000000000000000000000000000000007bffffffffffffffffffffffffffffffffffffffffffffffffffffffff19166020820180517bffffffffffffffffffffffffffffffffffffffffffffffffffffffff8381831617835250505050610e6b565b505050565b610e678282604051602401610de5929190611490565b6040516020818303038152906040527f9710a9d0000000000000000000000000000000000000000000000000000000007bffffffffffffffffffffffffffffffffffffffffffffffffffffffff19166020820180517bffffffffffffffffffffffffffffffffffffffffffffffffffffffff8381831617835250505050610e6b565b5050565b60008151905060006a636f6e736f6c652e6c6f679050602083016000808483855afa5050505050565b828054610ea09061173b565b90600052602060002090601f016020900481019282610ec25760008555610f09565b82601f10610edb57805160ff1916838001178555610f09565b82800160010185558215610f09579182015b82811115610f08578251825591602001919060010190610eed565b5b509050610f169190610f1a565b5090565b5b80821115610f33576000816000905550600101610f1b565b5090565b6000610f4a610f4584611570565b61154b565b905082815260208101848484011115610f6257600080fd5b610f6d8482856116f9565b509392505050565b600081359050610f8481611934565b92915050565b600081359050610f998161194b565b92915050565b600081359050610fae8161195b565b92915050565b600082601f830112610fc557600080fd5b8135610fd5848260208601610f37565b91505092915050565b600060c08284031215610ff057600080fd5b610ffa60c061154b565b9050600061100a84828501610f75565b600083015250602082013567ffffffffffffffff81111561102a57600080fd5b61103684828501610fb4565b602083015250604082013567ffffffffffffffff81111561105657600080fd5b61106284828501610fb4565b604083015250606082013567ffffffffffffffff81111561108257600080fd5b61108e84828501610fb4565b60608301525060806110a284828501610f8a565b60808301525060a06110b684828501610f9f565b60a08301525092915050565b6000602082840312156110d457600080fd5b600082013567ffffffffffffffff8111156110ee57600080fd5b6110fa84828501610fde565b91505092915050565b600061110f83836112d4565b905092915050565b61112081611673565b82525050565b61112f81611673565b82525050565b6000611140826115b1565b61114a81856115d4565b93508360208202850161115c856115a1565b8060005b8581101561119857848403895281516111798582611103565b9450611184836115c7565b925060208a01995050600181019050611160565b50829750879550505050505092915050565b6111b3816116d5565b82525050565b6111c2816116e7565b82525050565b60006111d3826115bc565b6111dd81856115f0565b93506111ed818560208601611708565b6111f68161185a565b840191505092915050565b600061120c826115bc565b6112168185611601565b9350611226818560208601611708565b61122f8161185a565b840191505092915050565b6000611245826115bc565b61124f8185611612565b935061125f818560208601611708565b80840191505092915050565b6000611278602e83611601565b91506112838261186b565b604082019050919050565b600061129b602683611601565b91506112a6826118ba565b604082019050919050565b60006112be6000836115e5565b91506112c982611909565b600082019050919050565b600060c0830160008301516112ec6000860182611117565b506020830151848203602086015261130482826111c8565b9150506040830151848203604086015261131e82826111c8565b9150506060830151848203606086015261133882826111c8565b915050608083015161134d60808601826111aa565b5060a083015161136060a08601826111b9565b508091505092915050565b611374816116cb565b82525050565b6000611386828461123a565b915081905092915050565b600061139c826112b1565b9150819050919050565b600060208201905081810360008301526113c08184611135565b905092915050565b600060208201905081810360008301526113e28184611201565b905092915050565b600060808201905081810360008301526114048187611201565b90506114136020830186611126565b81810360408301526114258185611201565b905081810360608301526114398184611201565b905095945050505050565b6000606082019050818103600083015261145e8186611201565b905081810360208301526114728185611201565b905081810360408301526114868184611201565b9050949350505050565b600060408201905081810360008301526114aa8185611201565b90506114b9602083018461136b565b9392505050565b600060208201905081810360008301526114d98161126b565b9050919050565b600060208201905081810360008301526114f98161128e565b9050919050565b6000602082019050611515600083018461136b565b92915050565b6000604082019050611530600083018561136b565b81810360208301526115428184611201565b90509392505050565b6000611555611566565b9050611561828261176d565b919050565b6000604051905090565b600067ffffffffffffffff82111561158b5761158a61182b565b5b6115948261185a565b9050602081019050919050565b6000819050602082019050919050565b600081519050919050565b600081519050919050565b6000602082019050919050565b600082825260208201905092915050565b600081905092915050565b600082825260208201905092915050565b600082825260208201905092915050565b600081905092915050565b6000611628826116cb565b9150611633836116cb565b9250827fffffffffffffffffffffffffffffffffffffffffffffffffffffffffffffffff038211156116685761166761179e565b5b828201905092915050565b600061167e826116ab565b9050919050565b60008190506116938261190c565b919050565b60008190506116a682611920565b919050565b600073ffffffffffffffffffffffffffffffffffffffff82169050919050565b6000819050919050565b60006116e082611685565b9050919050565b60006116f282611698565b9050919050565b82818337600083830152505050565b60005b8381101561172657808201518184015260208101905061170b565b83811115611735576000848401525b50505050565b6000600282049050600182168061175357607f821691505b60208210811415611767576117666117fc565b5b50919050565b6117768261185a565b810181811067ffffffffffffffff821117156117955761179461182b565b5b80604052505050565b7f4e487b7100000000000000000000000000000000000000000000000000000000600052601160045260246000fd5b7f4e487b7100000000000000000000000000000000000000000000000000000000600052602160045260246000fd5b7f4e487b7100000000000000000000000000000000000000000000000000000000600052602260045260246000fd5b7f4e487b7100000000000000000000000000000000000000000000000000000000600052604160045260246000fd5b6000601f19601f8301169050919050565b7f42726f20796f757220636f6e747261637420686173206c657373207468616e2060008201527f7072697a652076616c7565203a44000000000000000000000000000000000000602082015250565b7f4661696c656420746f207769746864726177206d6f6e65792066726f6d20636f60008201527f6e74726163740000000000000000000000000000000000000000000000000000602082015250565b50565b6003811061191d5761191c6117cd565b5b50565b60038110611931576119306117cd565b5b50565b61193d81611673565b811461194857600080fd5b50565b6003811061195857600080fd5b50565b6003811061196857600080fd5b5056fe257320686173206a6f696e656420746865207370616365212072656163746564207769746820656d6f6a693a2025732066726f6d2025732e4274772c206865726520697320796f757220737461747573206f662077696e696e67204e4654206f7220455448206973203d3d3d3e2025732c20616e6420796f75722077696e2074797065206973203d3d3d3e202573a2646970667358221220d9a70863e4775924bf94f0184702c9b34bebf0ddb48fafc42d9ecfa20714b08d64736f6c63430008040033",
  "linkReferences": {},
  "deployedLinkReferences": {}
}