{
  "_format": "hh-sol-artifact-1",
  "contractName": "JoinSpace",
  "sourceName": "contracts/JoinSpace.sol",
  "abi": [
    {
      "inputs": [],
      "stateMutability": "nonpayable",
      "type": "constructor"
    },
    {
      "inputs": [],
      "name": "getNFTIPFSLink",
      "outputs": [
        {
          "internalType": "string",
          "name": "",
          "type": "string"
        }
      ],
      "stateMutability": "nonpayable",
      "type": "function"
    },
    {
      "inputs": [],
      "name": "getTotalSpacers",
      "outputs": [
        {
          "internalType": "uint256",
          "name": "",
          "type": "uint256"
        }
      ],
      "stateMutability": "view",
      "type": "function"
    },
    {
      "inputs": [
        {
          "components": [
            {
              "internalType": "address",
              "name": "id",
              "type": "address"
            },
            {
              "internalType": "string",
              "name": "feelingEmoji",
              "type": "string"
            },
            {
              "internalType": "string",
              "name": "countryEmoji",
              "type": "string"
            },
            {
              "internalType": "string",
              "name": "date",
              "type": "string"
            },
            {
              "internalType": "enum WinStatus",
              "name": "status",
              "type": "uint8"
            },
            {
              "internalType": "enum WinType",
              "name": "winType",
              "type": "uint8"
            }
          ],
          "internalType": "struct Spacer",
          "name": "_spacer",
          "type": "tuple"
        }
      ],
      "name": "joinSpace",
      "outputs": [],
      "stateMutability": "nonpayable",
      "type": "function"
    }
  ],
  "bytecode": "0x60806040523480156200001157600080fd5b506200005d6040518060400160405280602081526020017f57656c636f6d6520746f2074686520776f726c64206f662073706163657273218152506200006360201b620003701760201c565b620001f7565b62000103816040516024016200007a919062000170565b6040516020818303038152906040527f41304fac000000000000000000000000000000000000000000000000000000007bffffffffffffffffffffffffffffffffffffffffffffffffffffffff19166020820180517bffffffffffffffffffffffffffffffffffffffffffffffffffffffff83818316178352505050506200010660201b60201c565b50565b60008151905060006a636f6e736f6c652e6c6f679050602083016000808483855afa5050505050565b60006200013c8262000194565b6200014881856200019f565b93506200015a818560208601620001b0565b6200016581620001e6565b840191505092915050565b600060208201905081810360008301526200018c81846200012f565b905092915050565b600081519050919050565b600082825260208201905092915050565b60005b83811015620001d0578082015181840152602081019050620001b3565b83811115620001e0576000848401525b50505050565b6000601f19601f8301169050919050565b61110c80620002076000396000f3fe608060405234801561001057600080fd5b50600436106100415760003560e01c8063b9b7ca2514610046578063c202c79c14610064578063cb1c11a514610080575b600080fd5b61004e61009e565b60405161005b9190610cac565b60405180910390f35b61007e60048036038101906100799190610bcc565b610119565b005b610088610325565b6040516100959190610da4565b60405180910390f35b60606100de6040518060400160405280601981526020017f736f6d6520697066732075726c20666f72204e465420776f6e00000000000000815250610370565b6040518060400160405280600d81526020017f736f6d6520697066732075726c00000000000000000000000000000000000000815250905090565b600481908060018154018082558091505060019003906000526020600020906005020160009091909190915060008201518160000160006101000a81548173ffffffffffffffffffffffffffffffffffffffff021916908373ffffffffffffffffffffffffffffffffffffffff16021790555060208201518160010190805190602001906101a892919061099e565b5060408201518160020190805190602001906101c592919061099e565b5060608201518160030190805190602001906101e292919061099e565b5060808201518160040160006101000a81548160ff02191690836002811115610234577f4e487b7100000000000000000000000000000000000000000000000000000000600052602160045260246000fd5b021790555060a08201518160040160016101000a81548160ff0219169083600281111561028a577f4e487b7100000000000000000000000000000000000000000000000000000000600052602160045260246000fd5b0217905550505060016000808282546102a39190610e3c565b925050819055506102b78160400151610409565b6102e760405180606001604052806038815260200161104960389139826000015183602001518460400151610441565b6103226040518060800160405280605681526020016110816056913961031083608001516104e3565b61031d8460a0015161068e565b61083a565b50565b60006103686040518060400160405280601981526020017f5765206861766520256420746f74616c207370616365727321000000000000008152506000546108d9565b600054905090565b610406816040516024016103849190610cac565b6040516020818303038152906040527f41304fac000000000000000000000000000000000000000000000000000000007bffffffffffffffffffffffffffffffffffffffffffffffffffffffff19166020820180517bffffffffffffffffffffffffffffffffffffffffffffffffffffffff8381831617835250505050610975565b50565b6001808260405161041a9190610c95565b908152602001604051809103902060008282546104379190610e3c565b9250508190555050565b6104dd8484848460405160240161045b9493929190610cce565b6040516020818303038152906040527f245986f2000000000000000000000000000000000000000000000000000000007bffffffffffffffffffffffffffffffffffffffffffffffffffffffff19166020820180517bffffffffffffffffffffffffffffffffffffffffffffffffffffffff8381831617835250505050610975565b50505050565b60606000600281111561051f577f4e487b7100000000000000000000000000000000000000000000000000000000600052602160045260246000fd5b826002811115610558577f4e487b7100000000000000000000000000000000000000000000000000000000600052602160045260246000fd5b141561059b576040518060400160405280600781526020017f50454e44494e47000000000000000000000000000000000000000000000000008152509050610689565b6002808111156105d4577f4e487b7100000000000000000000000000000000000000000000000000000000600052602160045260246000fd5b82600281111561060d577f4e487b7100000000000000000000000000000000000000000000000000000000600052602160045260246000fd5b1415610650576040518060400160405280600381526020017f574f4e00000000000000000000000000000000000000000000000000000000008152509050610689565b6040518060400160405280600481526020017f4c4f53540000000000000000000000000000000000000000000000000000000081525090505b919050565b6060600160028111156106ca577f4e487b7100000000000000000000000000000000000000000000000000000000600052602160045260246000fd5b826002811115610703577f4e487b7100000000000000000000000000000000000000000000000000000000600052602160045260246000fd5b1415610746576040518060400160405280600381526020017f4e465400000000000000000000000000000000000000000000000000000000008152509050610835565b60006002811115610780577f4e487b7100000000000000000000000000000000000000000000000000000000600052602160045260246000fd5b8260028111156107b9577f4e487b7100000000000000000000000000000000000000000000000000000000600052602160045260246000fd5b14156107fc576040518060400160405280600381526020017f45544800000000000000000000000000000000000000000000000000000000008152509050610835565b6040518060400160405280600f81526020017f4e6f742064657465726d696e656421000000000000000000000000000000000081525090505b919050565b6108d483838360405160240161085293929190610d28565b6040516020818303038152906040527f2ced7cef000000000000000000000000000000000000000000000000000000007bffffffffffffffffffffffffffffffffffffffffffffffffffffffff19166020820180517bffffffffffffffffffffffffffffffffffffffffffffffffffffffff8381831617835250505050610975565b505050565b61097182826040516024016108ef929190610d74565b6040516020818303038152906040527f9710a9d0000000000000000000000000000000000000000000000000000000007bffffffffffffffffffffffffffffffffffffffffffffffffffffffff19166020820180517bffffffffffffffffffffffffffffffffffffffffffffffffffffffff8381831617835250505050610975565b5050565b60008151905060006a636f6e736f6c652e6c6f679050602083016000808483855afa5050505050565b8280546109aa90610f10565b90600052602060002090601f0160209004810192826109cc5760008555610a13565b82601f106109e557805160ff1916838001178555610a13565b82800160010185558215610a13579182015b82811115610a125782518255916020019190600101906109f7565b5b509050610a209190610a24565b5090565b5b80821115610a3d576000816000905550600101610a25565b5090565b6000610a54610a4f84610de4565b610dbf565b905082815260208101848484011115610a6c57600080fd5b610a77848285610ece565b509392505050565b600081359050610a8e81611011565b92915050565b600081359050610aa381611028565b92915050565b600081359050610ab881611038565b92915050565b600082601f830112610acf57600080fd5b8135610adf848260208601610a41565b91505092915050565b600060c08284031215610afa57600080fd5b610b0460c0610dbf565b90506000610b1484828501610a7f565b600083015250602082013567ffffffffffffffff811115610b3457600080fd5b610b4084828501610abe565b602083015250604082013567ffffffffffffffff811115610b6057600080fd5b610b6c84828501610abe565b604083015250606082013567ffffffffffffffff811115610b8c57600080fd5b610b9884828501610abe565b6060830152506080610bac84828501610a94565b60808301525060a0610bc084828501610aa9565b60a08301525092915050565b600060208284031215610bde57600080fd5b600082013567ffffffffffffffff811115610bf857600080fd5b610c0484828501610ae8565b91505092915050565b610c1681610e92565b82525050565b6000610c2782610e15565b610c318185610e20565b9350610c41818560208601610edd565b610c4a81611000565b840191505092915050565b6000610c6082610e15565b610c6a8185610e31565b9350610c7a818560208601610edd565b80840191505092915050565b610c8f81610ec4565b82525050565b6000610ca18284610c55565b915081905092915050565b60006020820190508181036000830152610cc68184610c1c565b905092915050565b60006080820190508181036000830152610ce88187610c1c565b9050610cf76020830186610c0d565b8181036040830152610d098185610c1c565b90508181036060830152610d1d8184610c1c565b905095945050505050565b60006060820190508181036000830152610d428186610c1c565b90508181036020830152610d568185610c1c565b90508181036040830152610d6a8184610c1c565b9050949350505050565b60006040820190508181036000830152610d8e8185610c1c565b9050610d9d6020830184610c86565b9392505050565b6000602082019050610db96000830184610c86565b92915050565b6000610dc9610dda565b9050610dd58282610f42565b919050565b6000604051905090565b600067ffffffffffffffff821115610dff57610dfe610fd1565b5b610e0882611000565b9050602081019050919050565b600081519050919050565b600082825260208201905092915050565b600081905092915050565b6000610e4782610ec4565b9150610e5283610ec4565b9250827fffffffffffffffffffffffffffffffffffffffffffffffffffffffffffffffff03821115610e8757610e86610f73565b5b828201905092915050565b6000610e9d82610ea4565b9050919050565b600073ffffffffffffffffffffffffffffffffffffffff82169050919050565b6000819050919050565b82818337600083830152505050565b60005b83811015610efb578082015181840152602081019050610ee0565b83811115610f0a576000848401525b50505050565b60006002820490506001821680610f2857607f821691505b60208210811415610f3c57610f3b610fa2565b5b50919050565b610f4b82611000565b810181811067ffffffffffffffff82111715610f6a57610f69610fd1565b5b80604052505050565b7f4e487b7100000000000000000000000000000000000000000000000000000000600052601160045260246000fd5b7f4e487b7100000000000000000000000000000000000000000000000000000000600052602260045260246000fd5b7f4e487b7100000000000000000000000000000000000000000000000000000000600052604160045260246000fd5b6000601f19601f8301169050919050565b61101a81610e92565b811461102557600080fd5b50565b6003811061103557600080fd5b50565b6003811061104557600080fd5b5056fe257320686173206a6f696e656420746865207370616365212072656163746564207769746820656d6f6a693a2025732066726f6d2025732e4274772c206865726520697320796f757220737461747573206f662077696e696e67204e4654206f7220455448206973203d3d3d3e2025732c20616e6420796f75722077696e2074797065206973203d3d3d3e202573a26469706673582212208087b1672989804347b29372884e4bc55619b842a51f041d1ca47e227486f10964736f6c63430008040033",
  "linkReferences": {},
  "deployedLinkReferences": {}
}